:020000005A297B
:08000800FF00030E8312031335
:10001000A0000A0EA100040EA2008A110A126D2986
:10002000B808031D14280800F930FF3E031D1528E9
:100030000000B80B14280800FA30B8001020FA307D
:10004000B8001020FA30B8001020FA30B8001020A4
:10005000B70B1C280800831203132608003A031963
:100060003828013A03193C28033A031940280800AC
:1000700005178612061208000513861606120800D8
:10008000051386120616080083120313A708031926
:1000900056280510A7010130B7001C208510051354
:1000A000861206120630B7001C2008002B202C30C8
:1000B000B800102085140230B7001C200130A700C2
:1000C000051408008312031335180514351C051098
:1000D000B50A08008312031385110516B6013C30DA
:1000E000810008008312031305128515B6013C3008
:1000F0008100080083120313A60A033026020318A6
:10010000A6012B20080083120313A6032608033C34
:1001100003188C280230A6002B200800831203133A
:100120000611B208031D0800A7080319BA283308EE
:100130000D3A0319A8281D3A0319AD28013A0319ED
:10014000AF28313A0319B128013A0319B628BA2861
:1001500030083106031D6220BA286A20BA287220AE
:10016000BA2830083106031D7A20BA283008310633
:10017000031D832033080C3A031D080030083106A4
:10018000031D44200800831603138E1520308500BC
:1001900083128501C330831686008312860183167D
:1001A00081018113073083129F00831601138B1086
:1001B0000B168112011281110115811401143C30BA
:1001C000831281000B118B16383092006E3083162B
:1001D000920083128C1083168C140B108B15C03078
:1001E00083120605A900B4010130B7001C20860166
:1001F0008B170B1708008312031386180800BC30F6
:10020000B8001020861C442008008312031329081C
:10021000280603190800A708031945292908003AE8
:1002200003191C29403A03192729803A0319312957
:10023000403A03193C2945292808403A031D222940
:100240007A2045292808803A03198320452928085F
:10025000C03A031D2D297A204529A80803198320B7
:1002600045292808803A031D37297A20452928087E
:10027000403A031983204529A808031D41297A2003
:1002800045292808C03A031983202808A900080036
:10029000C3203408003C03185829341C53298E20ED
:1002A000061134104929341E4929052134124929DF
:1002B000FB204929013083120313A500A701A601E1
:1002C000AD010130AE00AF01B001B101B201B30127
:1002D000B501B6018A110A1248298B1C8C29831298
:1002E00003132F1C75298316011783122F187A29DF
:1002F000831601138312AF0AAC0AAD08031D8B29C4
:10030000AB01AC0191011A308316920083128C105C
:1003100012150130AD008B10831203138C1C102AB0
:10032000AE01061C9429AE0A2D0303199C29AB0AC1
:100330002B1806152B1C0611B9012D08013A0319BB
:10034000A829033A0319B029013A0319C129042A3B
:1003500091016E308316920002308312AD00062A9E
:100360002B03031DBE292C03031DBE29AB01AC01C9
:10037000AA01A301A4010330AD00062A0130B9008F
:10038000062A2B08023A031D062A2C08023C031CED
:10039000012AAB01AC010C302A020318D729AA0AA2
:1003A0000310A30DA40D2E0303192314062A3F30B6
:1003B0002305B3000630BA00BA080319E429031074
:1003C000A40CA30CBA03DD291F302305B2000530AD
:1003D000BA00BA080319F1290310A40CA30CBA033C
:1003E000EA2931082306031924080319FC290130DE
:1003F000B0002308B100FD29B00134140130B90068
:10040000062A0130B900062A0130B900B9080319DB
:100410000F2AAD01121183160113831206118C10DD
:100420000B1C172AC0300605A80034160B100B1D34
:10043000242A3608023C0318202A05128511B60129
:10044000B60A3C3081000B11220E8400210E8A0076
:0A045000200E8300FF0E7F0E09004E
:02400E00183F59
:00000001FF
